{"abi":[{"type":"constructor","inputs":[{"name":"_oracle","type":"address","internalType":"address"},{"name":"_disputeTimeout","type":"uint256","internalType":"uint256"}],"stateMutability":"nonpayable"},{"type":"function","name":"SUBMISSION_TIMEOUT","inputs":[],"outputs":[{"name":"","type":"uint256","internalType":"uint256"}],"stateMutability":"view"},{"type":"function","name":"applyForJob","inputs":[{"name":"id","type":"uint256","internalType":"uint256"},{"name":"pitch","type":"string","internalType":"string"}],"outputs":[],"stateMutability":"nonpayable"},{"type":"function","name":"approveWork","inputs":[{"name":"id","type":"uint256","internalType":"uint256"}],"outputs":[],"stateMutability":"nonpayable"},{"type":"function","name":"claimRefund","inputs":[{"name":"id","type":"uint256","internalType":"uint256"}],"outputs":[],"stateMutability":"nonpayable"},{"type":"function","name":"createJob","inputs":[{"name":"description","type":"string","internalType":"string"}],"outputs":[],"stateMutability":"payable"},{"type":"function","name":"disputeTimeout","inputs":[],"outputs":[{"name":"","type":"uint256","internalType":"uint256"}],"stateMutability":"view"},{"type":"function","name":"getApplications","inputs":[{"name":"id","type":"uint256","internalType":"uint256"}],"outputs":[{"name":"","type":"tuple[]","internalType":"struct BriefEscrow.Application[]","components":[{"name":"freelancer","type":"address","internalType":"address"},{"name":"pitch","type":"string","internalType":"string"}]}],"stateMutability":"view"},{"type":"function","name":"getJob","inputs":[{"name":"id","type":"uint256","internalType":"uint256"}],"outputs":[{"name":"","type":"tuple","internalType":"struct BriefEscrow.Job","components":[{"name":"client","type":"address","internalType":"address"},{"name":"freelancer","type":"address","internalType":"address"},{"name":"amount","type":"uint256","internalType":"uint256"},{"name":"description","type":"string","internalType":"string"},{"name":"workUrl","type":"string","internalType":"string"},{"name":"status","type":"uint8","internalType":"enum BriefEscrow.JobStatus"},{"name":"outcome","type":"uint8","internalType":"enum BriefEscrow.DisputeOutcome"},{"name":"freelancerPercent","type":"uint8","internalType":"uint8"},{"name":"verdictHash","type":"bytes32","internalType":"bytes32"},{"name":"fundedAt","type":"uint256","internalType":"uint256"},{"name":"submittedAt","type":"uint256","internalType":"uint256"}]}],"stateMutability":"view"},{"type":"function","name":"getJobsByStatus","inputs":[{"name":"status","type":"uint8","internalType":"enum BriefEscrow.JobStatus"}],"outputs":[{"name":"","type":"uint256[]","internalType":"uint256[]"}],"stateMutability":"view"},{"type":"function","name":"hasApplied","inputs":[{"name":"","type":"uint256","internalType":"uint256"},{"name":"","type":"address","internalType":"address"}],"outputs":[{"name":"","type":"bool","internalType":"bool"}],"stateMutability":"view"},{"type":"function","name":"hireFreelancer","inputs":[{"name":"id","type":"uint256","internalType":"uint256"},{"name":"freelancer","type":"address","internalType":"address"}],"outputs":[],"stateMutability":"nonpayable"},{"type":"function","name":"jobCount","inputs":[],"outputs":[{"name":"","type":"uint256","internalType":"uint256"}],"stateMutability":"view"},{"type":"function","name":"jobs","inputs":[{"name":"","type":"uint256","internalType":"uint256"}],"outputs":[{"name":"client","type":"address","internalType":"address"},{"name":"freelancer","type":"address","internalType":"address"},{"name":"amount","type":"uint256","internalType":"uint256"},{"name":"description","type":"string","internalType":"string"},{"name":"workUrl","type":"string","internalType":"string"},{"name":"status","type":"uint8","internalType":"enum BriefEscrow.JobStatus"},{"name":"outcome","type":"uint8","internalType":"enum BriefEscrow.DisputeOutcome"},{"name":"freelancerPercent","type":"uint8","internalType":"uint8"},{"name":"verdictHash","type":"bytes32","internalType":"bytes32"},{"name":"fundedAt","type":"uint256","internalType":"uint256"},{"name":"submittedAt","type":"uint256","internalType":"uint256"}],"stateMutability":"view"},{"type":"function","name":"oracle","inputs":[],"outputs":[{"name":"","type":"address","internalType":"address"}],"stateMutability":"view"},{"type":"function","name":"resolveDispute","inputs":[{"name":"id","type":"uint256","internalType":"uint256"},{"name":"outcome","type":"uint8","internalType":"enum BriefEscrow.DisputeOutcome"},{"name":"freelancerPercent","type":"uint8","internalType":"uint8"},{"name":"verdictHash","type":"bytes32","internalType":"bytes32"},{"name":"reasoning","type":"string","internalType":"string"}],"outputs":[],"stateMutability":"nonpayable"},{"type":"function","name":"submitWork","inputs":[{"name":"id","type":"uint256","internalType":"uint256"},{"name":"workUrl","type":"string","internalType":"string"}],"outputs":[],"stateMutability":"nonpayable"},{"type":"function","name":"triggerDispute","inputs":[{"name":"id","type":"uint256","internalType":"uint256"}],"outputs":[],"stateMutability":"nonpayable"},{"type":"event","name":"DisputeResolved","inputs":[{"name":"jobId","type":"uint256","indexed":true,"internalType":"uint256"},{"name":"outcome","type":"uint8","indexed":false,"internalType":"enum BriefEscrow.DisputeOutcome"},{"name":"freelancerPercent","type":"uint8","indexed":false,"internalType":"uint8"},{"name":"verdictHash","type":"bytes32","indexed":false,"internalType":"bytes32"},{"name":"reasoning","type":"string","indexed":false,"internalType":"string"}],"anonymous":false},{"type":"event","name":"DisputeTriggered","inputs":[{"name":"jobId","type":"uint256","indexed":true,"internalType":"uint256"}],"anonymous":false},{"type":"event","name":"FreelancerHired","inputs":[{"name":"jobId","type":"uint256","indexed":true,"internalType":"uint256"},{"name":"freelancer","type":"address","indexed":true,"internalType":"address"}],"anonymous":false},{"type":"event","name":"JobApplied","inputs":[{"name":"jobId","type":"uint256","indexed":true,"internalType":"uint256"},{"name":"freelancer","type":"address","indexed":true,"internalType":"address"},{"name":"pitch","type":"string","indexed":false,"internalType":"string"}],"anonymous":false},{"type":"event","name":"JobCreated","inputs":[{"name":"jobId","type":"uint256","indexed":true,"internalType":"uint256"},{"name":"client","type":"address","indexed":true,"internalType":"address"},{"name":"amount","type":"uint256","indexed":false,"internalType":"uint256"},{"name":"description","type":"string","indexed":false,"internalType":"string"}],"anonymous":false},{"type":"event","name":"RefundClaimed","inputs":[{"name":"jobId","type":"uint256","indexed":true,"internalType":"uint256"},{"name":"client","type":"address","indexed":true,"internalType":"address"},{"name":"amount","type":"uint256","indexed":false,"internalType":"uint256"}],"anonymous":false},{"type":"event","name":"WorkApproved","inputs":[{"name":"jobId","type":"uint256","indexed":true,"internalType":"uint256"},{"name":"freelancer","type":"address","indexed":true,"internalType":"address"},{"name":"amount","type":"uint256","indexed":false,"internalType":"uint256"}],"anonymous":false},{"type":"event","name":"WorkSubmitted","inputs":[{"name":"jobId","type":"uint256","indexed":true,"internalType":"uint256"},{"name":"workUrl","type":"string","indexed":false,"internalType":"string"}],"anonymous":false}],"bytecode":{"object":"0x608060405234801561000f575f5ffd5b506040516140403803806140408339818101604052810190610031919061010f565b815f5f6101000a81548173ffffffffffffffffffffffffffffffffffffffff021916908373ffffffffffffffffffffffffffffffffffffffff16021790555080600181905550505061014d565b5f5ffd5b5f73ffffffffffffffffffffffffffffffffffffffff82169050919050565b5f6100ab82610082565b9050919050565b6100bb816100a1565b81146100c5575f5ffd5b50565b5f815190506100d6816100b2565b92915050565b5f819050919050565b6100ee816100dc565b81146100f8575f5ffd5b50565b5f81519050610109816100e5565b92915050565b5f5f604083850312156101255761012461007e565b5b5f610132858286016100c8565b9250506020610143858286016100fb565b9150509250929050565b613ee68061015a5f395ff3fe6080604052600436106100fd575f3560e01c8063aafa944e11610094578063c04c22a411610063578063c04c22a414610333578063da8accf91461035d578063dd8f7d1b14610385578063ecf3f3cc146103c1578063f247a4d0146103e9576100fd565b8063aafa944e14610277578063b0f26f1814610293578063bc8c937d146102bb578063bf22c457146102f7576100fd565b80636c09a5e3116100d05780636c09a5e3146101c15780637dc0d1d0146101e957806396b0108514610213578063a39bf5441461023b576100fd565b8063180aedf3146101015780633d01e0fa146101475780634c5d8a0f1461016f5780635b7baf6414610199575b5f5ffd5b34801561010c575f5ffd5b506101276004803603810190610122919061256a565b610413565b60405161013e9b9a9998979695949392919061273f565b60405180910390f35b348015610152575f5ffd5b5061016d6004803603810190610168919061256a565b6105d9565b005b34801561017a575f5ffd5b50610183610874565b60405161019091906127f6565b60405180910390f35b3480156101a4575f5ffd5b506101bf60048036038101906101ba919061256a565b61087a565b005b3480156101cc575f5ffd5b506101e760048036038101906101e29190612870565b610b46565b005b3480156101f4575f5ffd5b506101fd610efd565b60405161020a91906128cd565b60405180910390f35b34801561021e575f5ffd5b506102396004803603810190610234919061295d565b610f21565b005b348015610246575f5ffd5b50610261600480360381019061025c9190612a1d565b61152c565b60405161026e9190612a75565b60405180910390f35b610291600480360381019061028c9190612a8e565b611556565b005b34801561029e575f5ffd5b506102b960048036038101906102b49190612a1d565b6118fd565b005b3480156102c6575f5ffd5b506102e160048036038101906102dc919061256a565b611b66565b6040516102ee9190612c25565b60405180910390f35b348015610302575f5ffd5b5061031d6004803603810190610318919061256a565b611cb7565b60405161032a9190612d83565b60405180910390f35b34801561033e575f5ffd5b50610347611f66565b60405161035491906127f6565b60405180910390f35b348015610368575f5ffd5b50610383600480360381019061037e9190612870565b611f6c565b005b348015610390575f5ffd5b506103ab60048036038101906103a69190612dc6565b612156565b6040516103b89190612e99565b60405180910390f35b3480156103cc575f5ffd5b506103e760048036038101906103e2919061256a565b6122b7565b005b3480156103f4575f5ffd5b506103fd612484565b60405161040a91906127f6565b60405180910390f35b6003602052805f5260405f205f91509050805f015f9054906101000a900473ffffffffffffffffffffffffffffffffffffffff1690806001015f9054906101000a900473ffffffffffffffffffffffffffffffffffffffff169080600201549080600301805461048290612ee6565b80601f01602080910402602001604051908101604052809291908181526020018280546104ae90612ee6565b80156104f95780601f106104d0576101008083540402835291602001916104f9565b820191905f5260205f20905b8154815290600101906020018083116104dc57829003601f168201915b50505050509080600401805461050e90612ee6565b80601f016020809104026020016040519081016040528092919081815260200182805461053a90612ee6565b80156105855780601f1061055c57610100808354040283529160200191610585565b820191905f5260205f20905b81548152906001019060200180831161056857829003601f168201915b505050505090806005015f9054906101000a900460ff16908060050160019054906101000a900460ff16908060050160029054906101000a900460ff1690806006015490806007015490806008015490508b565b5f60035f8381526020019081526020015f2090506002600681111561060157610600612653565b5b816005015f9054906101000a900460ff16600681111561062457610623612653565b5b14610664576040517f08c379a000000000000000000000000000000000000000000000000000000000815260040161065b90612f60565b60405180910390fd5b3373ffffffffffffffffffffffffffffffffffffffff16815f015f9054906101000a900473ffffffffffffffffffffffffffffffffffffffff1673ffffffffffffffffffffffffffffffffffffffff16146106f4576040517f08c379a00000000000000000000000000000000000000000000000000000000081526004016106eb90612fc8565b60405180910390fd5b6003816005015f6101000a81548160ff0219169083600681111561071b5761071a612653565b5b02179055505f816002015490505f82600201819055505f826001015f9054906101000a900473ffffffffffffffffffffffffffffffffffffffff1673ffffffffffffffffffffffffffffffffffffffff168260405161077990613013565b5f6040518083038185875af1925050503d805f81146107b3576040519150601f19603f3d011682016040523d82523d5f602084013e6107b8565b606091505b50509050806107fc576040517f08c379a00000000000000000000000000000000000000000000000000000000081526004016107f390613071565b60405180910390fd5b826001015f9054906101000a900473ffffffffffffffffffffffffffffffffffffffff1673ffffffffffffffffffffffffffffffffffffffff16847f64b4416fce27e7ac6fa5ad9c2d28a78d2a024b8d2b50a61f18f5e11398f7dd848460405161086691906127f6565b60405180910390a350505050565b60025481565b5f60035f8381526020019081526020015f209050600160068111156108a2576108a1612653565b5b816005015f9054906101000a900460ff1660068111156108c5576108c4612653565b5b14610905576040517f08c379a00000000000000000000000000000000000000000000000000000000081526004016108fc906130d9565b60405180910390fd5b3373ffffffffffffffffffffffffffffffffffffffff16815f015f9054906101000a900473ffffffffffffffffffffffffffffffffffffffff1673ffffffffffffffffffffffffffffffffffffffff1614610995576040517f08c379a000000000000000000000000000000000000000000000000000000000815260040161098c90612fc8565b60405180910390fd5b6212750081600701546109a89190613124565b4210156109ea576040517f08c379a00000000000000000000000000000000000000000000000000000000081526004016109e1906131a1565b60405180910390fd5b6004816005015f6101000a81548160ff02191690836006811115610a1157610a10612653565b5b02179055505f816002015490505f82600201819055505f825f015f9054906101000a900473ffffffffffffffffffffffffffffffffffffffff1673ffffffffffffffffffffffffffffffffffffffff1682604051610a6e90613013565b5f6040518083038185875af1925050503d805f8114610aa8576040519150601f19603f3d011682016040523d82523d5f602084013e610aad565b606091505b5050905080610af1576040517f08c379a0000000000000000000000000000000000000000000000000000000008152600401610ae890613209565b60405180910390fd5b3373ffffffffffffffffffffffffffffffffffffffff16847ff3f402280ef0a7905e124aa621b65eaeb2725c343e8b36d398ed78c29daf285c84604051610b3891906127f6565b60405180910390a350505050565b5f60035f8581526020019081526020015f2090505f6006811115610b6d57610b6c612653565b5b816005015f9054906101000a900460ff166006811115610b9057610b8f612653565b5b14610bd0576040517f08c379a0000000000000000000000000000000000000000000000000000000008152600401610bc790613271565b60405180910390fd5b3373ffffffffffffffffffffffffffffffffffffffff16815f015f9054906101000a900473ffffffffffffffffffffffffffffffffffffffff1673ffffffffffffffffffffffffffffffffffffffff1603610c60576040517f08c379a0000000000000000000000000000000000000000000000000000000008152600401610c57906132d9565b60405180910390fd5b60055f8581526020019081526020015f205f3373ffffffffffffffffffffffffffffffffffffffff1673ffffffffffffffffffffffffffffffffffffffff1681526020019081526020015f205f9054906101000a900460ff1615610cf9576040517f08c379a0000000000000000000000000000000000000000000000000000000008152600401610cf090613341565b60405180910390fd5b6101f4838390501115610d41576040517f08c379a0000000000000000000000000000000000000000000000000000000008152600401610d38906133a9565b60405180910390fd5b600160055f8681526020019081526020015f205f3373ffffffffffffffffffffffffffffffffffffffff1673ffffffffffffffffffffffffffffffffffffffff1681526020019081526020015f205f6101000a81548160ff02191690831515021790555060045f8581526020019081526020015f2060405180604001604052803373ffffffffffffffffffffffffffffffffffffffff16815260200185858080601f0160208091040260200160405190810160405280939291908181526020018383808284375f81840152601f19601f82011690508083019250505050505050815250908060018154018082558091505060019003905f5260205f2090600202015f909190919091505f820151815f015f6101000a81548173ffffffffffffffffffffffffffffffffffffffff021916908373ffffffffffffffffffffffffffffffffffffffff1602179055506020820151816001019081610ea391906135a5565b5050503373ffffffffffffffffffffffffffffffffffffffff16847fdade408e5cd612a74423eb497e77aa7bf6749f2d6e0906d1cba11c6d1bad19648585604051610eef9291906136ae565b60405180910390a350505050565b5f5f9054906101000a900473ffffffffffffffffffffffffffffffffffffffff1681565b5f5f9054906101000a900473ffffffffffffffffffffffffffffffffffffffff1673ffffffffffffffffffffffffffffffffffffffff163373ffffffffffffffffffffffffffffffffffffffff1614610faf576040517f08c379a0000000000000000000000000000000000000000000000000000000008152600401610fa69061371a565b60405180910390fd5b5f60035f8881526020019081526020015f20905060056006811115610fd757610fd6612653565b5b816005015f9054906101000a900460ff166006811115610ffa57610ff9612653565b5b1461103a576040517f08c379a000000000000000000000000000000000000000000000000000000000815260040161103190613782565b60405180910390fd5b60648560ff161115611081576040517f08c379a0000000000000000000000000000000000000000000000000000000008152600401611078906137ea565b60405180910390fd5b6006816005015f6101000a81548160ff021916908360068111156110a8576110a7612653565b5b0217905550858160050160016101000a81548160ff021916908360028111156110d4576110d3612653565b5b0217905550848160050160026101000a81548160ff021916908360ff1602179055508381600601819055505f816002015490505f82600201819055505f600281111561112357611122612653565b5b87600281111561113657611135612653565b5b0361120c575f826001015f9054906101000a900473ffffffffffffffffffffffffffffffffffffffff1673ffffffffffffffffffffffffffffffffffffffff168260405161118390613013565b5f6040518083038185875af1925050503d805f81146111bd576040519150601f19603f3d011682016040523d82523d5f602084013e6111c2565b606091505b5050905080611206576040517f08c379a00000000000000000000000000000000000000000000000000000000081526004016111fd90613852565b60405180910390fd5b506114e2565b600160028111156112205761121f612653565b5b87600281111561123357611232612653565b5b03611308575f825f015f9054906101000a900473ffffffffffffffffffffffffffffffffffffffff1673ffffffffffffffffffffffffffffffffffffffff168260405161127f90613013565b5f6040518083038185875af1925050503d805f81146112b9576040519150601f19603f3d011682016040523d82523d5f602084013e6112be565b606091505b5050905080611302576040517f08c379a00000000000000000000000000000000000000000000000000000000081526004016112f9906138ba565b60405180910390fd5b506114e1565b5f60648760ff168361131a91906138d8565b6113249190613946565b90505f81836113339190613976565b90505f82111561140a575f846001015f9054906101000a900473ffffffffffffffffffffffffffffffffffffffff1673ffffffffffffffffffffffffffffffffffffffff168360405161138590613013565b5f6040518083038185875af1925050503d805f81146113bf576040519150601f19603f3d011682016040523d82523d5f602084013e6113c4565b606091505b5050905080611408576040517f08c379a00000000000000000000000000000000000000000000000000000000081526004016113ff906139f3565b60405180910390fd5b505b5f8111156114de575f845f015f9054906101000a900473ffffffffffffffffffffffffffffffffffffffff1673ffffffffffffffffffffffffffffffffffffffff168260405161145990613013565b5f6040518083038185875af1925050503d805f8114611493576040519150601f19603f3d011682016040523d82523d5f602084013e611498565b606091505b50509050806114dc576040517f08c379a00000000000000000000000000000000000000000000000000000000081526004016114d390613a5b565b60405180910390fd5b505b50505b5b877fe732b6dd7d15e746e970da6039a2fab68c1d3eba5af724d0eee056d655b18252888888888860405161151a959493929190613a79565b60405180910390a25050505050505050565b6005602052815f5260405f20602052805f5260405f205f915091509054906101000a900460ff1681565b5f3411611598576040517f08c379a000000000000000000000000000000000000000000000000000000000815260040161158f90613b0f565b60405180910390fd5b5f82829050116115dd576040517f08c379a00000000000000000000000000000000000000000000000000000000081526004016115d490613b77565b60405180910390fd5b610bb8828290501115611625576040517f08c379a000000000000000000000000000000000000000000000000000000000815260040161161c90613bdf565b60405180910390fd5b5f60025f81548092919061163890613bfd565b9190505590506040518061016001604052803373ffffffffffffffffffffffffffffffffffffffff1681526020015f73ffffffffffffffffffffffffffffffffffffffff16815260200134815260200184848080601f0160208091040260200160405190810160405280939291908181526020018383808284375f81840152601f19601f82011690508083019250505050505050815260200160405180602001604052805f81525081526020015f60068111156116f8576116f7612653565b5b81526020015f60028111156117105761170f612653565b5b81526020015f60ff1681526020015f5f1b81526020014281526020015f81525060035f8381526020019081526020015f205f820151815f015f6101000a81548173ffffffffffffffffffffffffffffffffffffffff021916908373ffffffffffffffffffffffffffffffffffffffff1602179055506020820151816001015f6101000a81548173ffffffffffffffffffffffffffffffffffffffff021916908373ffffffffffffffffffffffffffffffffffffffff1602179055506040820151816002015560608201518160030190816117ea91906135a5565b50608082015181600401908161180091906135a5565b5060a0820151816005015f6101000a81548160ff0219169083600681111561182b5761182a612653565b5b021790555060c08201518160050160016101000a81548160ff0219169083600281111561185b5761185a612653565b5b021790555060e08201518160050160026101000a81548160ff021916908360ff1602179055506101008201518160060155610120820151816007015561014082015181600801559050503373ffffffffffffffffffffffffffffffffffffffff16817f6f3a5227c058380f6d30b3c63e04e4b049f2df6d1780f11e4ff1b3e9728a36523486866040516118f093929190613c44565b60405180910390a3505050565b5f60035f8481526020019081526020015f2090505f600681111561192457611923612653565b5b816005015f9054906101000a900460ff16600681111561194757611946612653565b5b14611987576040517f08c379a000000000000000000000000000000000000000000000000000000000815260040161197e90613271565b60405180910390fd5b3373ffffffffffffffffffffffffffffffffffffffff16815f015f9054906101000a900473ffffffffffffffffffffffffffffffffffffffff1673ffffffffffffffffffffffffffffffffffffffff1614611a17576040517f08c379a0000000000000000000000000000000000000000000000000000000008152600401611a0e90612fc8565b60405180910390fd5b60055f8481526020019081526020015f205f8373ffffffffffffffffffffffffffffffffffffffff1673ffffffffffffffffffffffffffffffffffffffff1681526020019081526020015f205f9054906101000a900460ff16611aaf576040517f08c379a0000000000000000000000000000000000000000000000000000000008152600401611aa690613cbe565b60405180910390fd5b81816001015f6101000a81548173ffffffffffffffffffffffffffffffffffffffff021916908373ffffffffffffffffffffffffffffffffffffffff1602179055506001816005015f6101000a81548160ff02191690836006811115611b1857611b17612653565b5b02179055508173ffffffffffffffffffffffffffffffffffffffff16837f275ab44b0c246a31e80d4be1133500786fb735dd528a1c8dbd0245896c6b142160405160405180910390a3505050565b606060045f8381526020019081526020015f20805480602002602001604051908101604052809291908181526020015f905b82821015611cac578382905f5260205f2090600202016040518060400160405290815f82015f9054906101000a900473ffffffffffffffffffffffffffffffffffffffff1673ffffffffffffffffffffffffffffffffffffffff1673ffffffffffffffffffffffffffffffffffffffff168152602001600182018054611c1d90612ee6565b80601f0160208091040260200160405190810160405280929190818152602001828054611c4990612ee6565b8015611c945780601f10611c6b57610100808354040283529160200191611c94565b820191905f5260205f20905b815481529060010190602001808311611c7757829003601f168201915b50505050508152505081526020019060010190611b98565b505050509050919050565b611cbf61248b565b60035f8381526020019081526020015f20604051806101600160405290815f82015f9054906101000a900473ffffffffffffffffffffffffffffffffffffffff1673ffffffffffffffffffffffffffffffffffffffff1673ffffffffffffffffffffffffffffffffffffffff168152602001600182015f9054906101000a900473ffffffffffffffffffffffffffffffffffffffff1673ffffffffffffffffffffffffffffffffffffffff1673ffffffffffffffffffffffffffffffffffffffff16815260200160028201548152602001600382018054611d9f90612ee6565b80601f0160208091040260200160405190810160405280929190818152602001828054611dcb90612ee6565b8015611e165780601f10611ded57610100808354040283529160200191611e16565b820191905f5260205f20905b815481529060010190602001808311611df957829003601f168201915b50505050508152602001600482018054611e2f90612ee6565b80601f0160208091040260200160405190810160405280929190818152602001828054611e5b90612ee6565b8015611ea65780601f10611e7d57610100808354040283529160200191611ea6565b820191905f5260205f20905b815481529060010190602001808311611e8957829003601f168201915b50505050508152602001600582015f9054906101000a900460ff166006811115611ed357611ed2612653565b5b6006811115611ee557611ee4612653565b5b81526020016005820160019054906101000a900460ff166002811115611f0e57611f0d612653565b5b6002811115611f2057611f1f612653565b5b81526020016005820160029054906101000a900460ff1660ff1660ff16815260200160068201548152602001600782015481526020016008820154815250509050919050565b60015481565b5f60035f8581526020019081526020015f20905060016006811115611f9457611f93612653565b5b816005015f9054906101000a900460ff166006811115611fb757611fb6612653565b5b14611ff7576040517f08c379a0000000000000000000000000000000000000000000000000000000008152600401611fee906130d9565b60405180910390fd5b3373ffffffffffffffffffffffffffffffffffffffff16816001015f9054906101000a900473ffffffffffffffffffffffffffffffffffffffff1673ffffffffffffffffffffffffffffffffffffffff1614612088576040517f08c379a000000000000000000000000000000000000000000000000000000000815260040161207f90613d26565b60405180910390fd5b5f83839050116120cd576040517f08c379a00000000000000000000000000000000000000000000000000000000081526004016120c490613d8e565b60405180910390fd5b82828260040191826120e0929190613db6565b506002816005015f6101000a81548160ff0219169083600681111561210857612107612653565b5b0217905550428160080181905550837f3822c71b106c7c1dabf7f076e68c9bd98c45d0cd0d073f4dcdaf422a0fe5584784846040516121489291906136ae565b60405180910390a250505050565b60605f5f5b6002548110156121cc5783600681111561217857612177612653565b5b60035f8381526020019081526020015f206005015f9054906101000a900460ff1660068111156121ab576121aa612653565b5b036121bf5781806121bb90613bfd565b9250505b808060010191505061215b565b505f8167ffffffffffffffff8111156121e8576121e76133c7565b5b6040519080825280602002602001820160405280156122165781602001602082028036833780820191505090505b5090505f5f5b6002548110156122ab5785600681111561223957612238612653565b5b60035f8381526020019081526020015f206005015f9054906101000a900460ff16600681111561226c5761226b612653565b5b0361229e578083838061227e90613bfd565b94508151811061229157612290613e83565b5b6020026020010181815250505b808060010191505061221c565b50819350505050919050565b5f60035f8381526020019081526020015f209050600260068111156122df576122de612653565b5b816005015f9054906101000a900460ff16600681111561230257612301612653565b5b14612342576040517f08c379a000000000000000000000000000000000000000000000000000000000815260040161233990612f60565b60405180910390fd5b3373ffffffffffffffffffffffffffffffffffffffff16816001015f9054906101000a900473ffffffffffffffffffffffffffffffffffffffff1673ffffffffffffffffffffffffffffffffffffffff16146123d3576040517f08c379a00000000000000000000000000000000000000000000000000000000081526004016123ca90613d26565b60405180910390fd5b60015481600801546123e59190613124565b421015612427576040517f08c379a000000000000000000000000000000000000000000000000000000000815260040161241e906131a1565b60405180910390fd5b6005816005015f6101000a81548160ff0219169083600681111561244e5761244d612653565b5b0217905550817f8c48f9005ba095a6930cd501ee69c0f7a68ac59d07790f414341065c08ba28b160405160405180910390a25050565b6212750081565b6040518061016001604052805f73ffffffffffffffffffffffffffffffffffffffff1681526020015f73ffffffffffffffffffffffffffffffffffffffff1681526020015f815260200160608152602001606081526020015f60068111156124f6576124f5612653565b5b81526020015f600281111561250e5761250d612653565b5b81526020015f60ff1681526020015f81526020015f81526020015f81525090565b5f5ffd5b5f5ffd5b5f819050919050565b61254981612537565b8114612553575f5ffd5b50565b5f8135905061256481612540565b92915050565b5f6020828403121561257f5761257e61252f565b5b5f61258c84828501612556565b91505092915050565b5f73ffffffffffffffffffffffffffffffffffffffff82169050919050565b5f6125be82612595565b9050919050565b6125ce816125b4565b82525050565b6125dd81612537565b82525050565b5f81519050919050565b5f82825260208201905092915050565b8281835e5f83830152505050565b5f601f19601f8301169050919050565b5f612625826125e3565b61262f81856125ed565b935061263f8185602086016125fd565b6126488161260b565b840191505092915050565b7f4e487b71000000000000000000000000000000000000000000000000000000005f52602160045260245ffd5b6007811061269157612690612653565b5b50565b5f8190506126a182612680565b919050565b5f6126b082612694565b9050919050565b6126c0816126a6565b82525050565b600381106126d7576126d6612653565b5b50565b5f8190506126e7826126c6565b919050565b5f6126f6826126da565b9050919050565b612706816126ec565b82525050565b5f60ff82169050919050565b6127218161270c565b82525050565b5f819050919050565b61273981612727565b82525050565b5f610160820190506127535f83018e6125c5565b612760602083018d6125c5565b61276d604083018c6125d4565b818103606083015261277f818b61261b565b90508181036080830152612793818a61261b565b90506127a260a08301896126b7565b6127af60c08301886126fd565b6127bc60e0830187612718565b6127ca610100830186612730565b6127d86101208301856125d4565b6127e66101408301846125d4565b9c9b505050505050505050505050565b5f6020820190506128095f8301846125d4565b92915050565b5f5ffd5b5f5ffd5b5f5ffd5b5f5f83601f8401126128305761282f61280f565b5b8235905067ffffffffffffffff81111561284d5761284c612813565b5b60208301915083600182028301111561286957612868612817565b5b9250929050565b5f5f5f604084860312156128875761288661252f565b5b5f61289486828701612556565b935050602084013567ffffffffffffffff8111156128b5576128b4612533565b5b6128c18682870161281b565b92509250509250925092565b5f6020820190506128e05f8301846125c5565b92915050565b600381106128f2575f5ffd5b50565b5f81359050612903816128e6565b92915050565b6129128161270c565b811461291c575f5ffd5b50565b5f8135905061292d81612909565b92915050565b61293c81612727565b8114612946575f5ffd5b50565b5f8135905061295781612933565b92915050565b5f5f5f5f5f5f60a087890312156129775761297661252f565b5b5f61298489828a01612556565b965050602061299589828a016128f5565b95505060406129a689828a0161291f565b94505060606129b789828a01612949565b935050608087013567ffffffffffffffff8111156129d8576129d7612533565b5b6129e489828a0161281b565b92509250509295509295509295565b6129fc816125b4565b8114612a06575f5ffd5b50565b5f81359050612a17816129f3565b92915050565b5f5f60408385031215612a3357612a3261252f565b5b5f612a4085828601612556565b9250506020612a5185828601612a09565b9150509250929050565b5f8115159050919050565b612a6f81612a5b565b82525050565b5f602082019050612a885f830184612a66565b92915050565b5f5f60208385031215612aa457612aa361252f565b5b5f83013567ffffffffffffffff811115612ac157612ac0612533565b5b612acd8582860161281b565b92509250509250929050565b5f81519050919050565b5f82825260208201905092915050565b5f819050602082019050919050565b612b0b816125b4565b82525050565b5f82825260208201905092915050565b5f612b2b826125e3565b612b358185612b11565b9350612b458185602086016125fd565b612b4e8161260b565b840191505092915050565b5f604083015f830151612b6e5f860182612b02565b5060208301518482036020860152612b868282612b21565b9150508091505092915050565b5f612b9e8383612b59565b905092915050565b5f602082019050919050565b5f612bbc82612ad9565b612bc68185612ae3565b935083602082028501612bd885612af3565b805f5b85811015612c135784840389528151612bf48582612b93565b9450612bff83612ba6565b925060208a01995050600181019050612bdb565b50829750879550505050505092915050565b5f6020820190508181035f830152612c3d8184612bb2565b905092915050565b612c4e81612537565b82525050565b612c5d816126a6565b82525050565b612c6c816126ec565b82525050565b612c7b8161270c565b82525050565b612c8a81612727565b82525050565b5f61016083015f830151612ca65f860182612b02565b506020830151612cb96020860182612b02565b506040830151612ccc6040860182612c45565b5060608301518482036060860152612ce48282612b21565b91505060808301518482036080860152612cfe8282612b21565b91505060a0830151612d1360a0860182612c54565b5060c0830151612d2660c0860182612c63565b5060e0830151612d3960e0860182612c72565b50610100830151612d4e610100860182612c81565b50610120830151612d63610120860182612c45565b50610140830151612d78610140860182612c45565b508091505092915050565b5f6020820190508181035f830152612d9b8184612c90565b905092915050565b60078110612daf575f5ffd5b50565b5f81359050612dc081612da3565b92915050565b5f60208284031215612ddb57612dda61252f565b5b5f612de884828501612db2565b91505092915050565b5f81519050919050565b5f82825260208201905092915050565b5f819050602082019050919050565b5f612e258383612c45565b60208301905092915050565b5f602082019050919050565b5f612e4782612df1565b612e518185612dfb565b9350612e5c83612e0b565b805f5b83811015612e8c578151612e738882612e1a565b9750612e7e83612e31565b925050600181019050612e5f565b5085935050505092915050565b5f6020820190508181035f830152612eb18184612e3d565b905092915050565b7f4e487b71000000000000000000000000000000000000000000000000000000005f52602260045260245ffd5b5f6002820490506001821680612efd57607f821691505b602082108103612f1057612f0f612eb9565b5b50919050565b7f576f726b206e6f74207375626d697474656400000000000000000000000000005f82015250565b5f612f4a6012836125ed565b9150612f5582612f16565b602082019050919050565b5f6020820190508181035f830152612f7781612f3e565b9050919050565b7f4e6f742074686520636c69656e740000000000000000000000000000000000005f82015250565b5f612fb2600e836125ed565b9150612fbd82612f7e565b602082019050919050565b5f6020820190508181035f830152612fdf81612fa6565b9050919050565b5f81905092915050565b50565b5f612ffe5f83612fe6565b915061300982612ff0565b5f82019050919050565b5f61301d82612ff3565b9150819050919050565b7f5472616e73666572206661696c656400000000000000000000000000000000005f82015250565b5f61305b600f836125ed565b915061306682613027565b602082019050919050565b5f6020820190508181035f8301526130888161304f565b9050919050565b7f4a6f62206e6f7420696e2070726f6772657373000000000000000000000000005f82015250565b5f6130c36013836125ed565b91506130ce8261308f565b602082019050919050565b5f6020820190508181035f8301526130f0816130b7565b9050919050565b7f4e487b71000000000000000000000000000000000000000000000000000000005f52601160045260245ffd5b5f61312e82612537565b915061313983612537565b9250828201905080821115613151576131506130f7565b5b92915050565b7f54696d656f7574206e6f742072656163686564000000000000000000000000005f82015250565b5f61318b6013836125ed565b915061319682613157565b602082019050919050565b5f6020820190508181035f8301526131b88161317f565b9050919050565b7f526566756e64206661696c6564000000000000000000000000000000000000005f82015250565b5f6131f3600d836125ed565b91506131fe826131bf565b602082019050919050565b5f6020820190508181035f830152613220816131e7565b9050919050565b7f4a6f62206e6f74206f70656e00000000000000000000000000000000000000005f82015250565b5f61325b600c836125ed565b915061326682613227565b602082019050919050565b5f6020820190508181035f8301526132888161324f565b9050919050565b7f43616e6e6f74206170706c7920746f20796f7572206f776e206a6f62000000005f82015250565b5f6132c3601c836125ed565b91506132ce8261328f565b602082019050919050565b5f6020820190508181035f8301526132f0816132b7565b9050919050565b7f416c7265616479206170706c69656400000000000000000000000000000000005f82015250565b5f61332b600f836125ed565b9150613336826132f7565b602082019050919050565b5f6020820190508181035f8301526133588161331f565b9050919050565b7f506974636820746f6f206c6f6e670000000000000000000000000000000000005f82015250565b5f613393600e836125ed565b915061339e8261335f565b602082019050919050565b5f6020820190508181035f8301526133c081613387565b9050919050565b7f4e487b71000000000000000000000000000000000000000000000000000000005f52604160045260245ffd5b5f819050815f5260205f209050919050565b5f6020601f8301049050919050565b5f82821b905092915050565b5f600883026134507fffffffffffffffffffffffffffffffffffffffffffffffffffffffffffffffff82613415565b61345a8683613415565b95508019841693508086168417925050509392505050565b5f819050919050565b5f61349561349061348b84612537565b613472565b612537565b9050919050565b5f819050919050565b6134ae8361347b565b6134c26134ba8261349c565b848454613421565b825550505050565b5f5f905090565b6134d96134ca565b6134e48184846134a5565b505050565b5f5b8281101561350a576134ff5f8284016134d1565b6001810190506134eb565b505050565b601f82111561355d578282111561355c57613529816133f4565b61353283613406565b61353b85613406565b6020861015613548575f90505b808301613557828403826134e9565b505050505b5b505050565b5f82821c905092915050565b5f61357d5f1984600802613562565b1980831691505092915050565b5f613595838361356e565b9150826002028217905092915050565b6135ae826125e3565b67ffffffffffffffff8111156135c7576135c66133c7565b5b6135d18254612ee6565b6135dc82828561350f565b5f60209050601f83116001811461360d575f84156135fb578287015190505b613605858261358a565b86555061366c565b601f19841661361b866133f4565b5f5b828110156136425784890151825560018201915060208501945060208101905061361d565b8683101561365f578489015161365b601f89168261356e565b8355505b6001600288020188555050505b505050505050565b828183375f83830152505050565b5f61368d83856125ed565b935061369a838584613674565b6136a38361260b565b840190509392505050565b5f6020820190508181035f8301526136c7818486613682565b90509392505050565b7f4e6f74206f7261636c65000000000000000000000000000000000000000000005f82015250565b5f613704600a836125ed565b915061370f826136d0565b602082019050919050565b5f6020820190508181035f830152613731816136f8565b9050919050565b7f4a6f62206e6f74206469737075746564000000000000000000000000000000005f82015250565b5f61376c6010836125ed565b915061377782613738565b602082019050919050565b5f6020820190508181035f83015261379981613760565b9050919050565b7f496e76616c69642070657263656e7400000000000000000000000000000000005f82015250565b5f6137d4600f836125ed565b91506137df826137a0565b602082019050919050565b5f6020820190508181035f830152613801816137c8565b9050919050565b7f467265656c616e636572207472616e73666572206661696c65640000000000005f82015250565b5f61383c601a836125ed565b915061384782613808565b602082019050919050565b5f6020820190508181035f83015261386981613830565b9050919050565b7f436c69656e74207472616e73666572206661696c6564000000000000000000005f82015250565b5f6138a46016836125ed565b91506138af82613870565b602082019050919050565b5f6020820190508181035f8301526138d181613898565b9050919050565b5f6138e282612537565b91506138ed83612537565b92508282026138fb81612537565b91508282048414831517613912576139116130f7565b5b5092915050565b7f4e487b71000000000000000000000000000000000000000000000000000000005f52601260045260245ffd5b5f61395082612537565b915061395b83612537565b92508261396b5761396a613919565b5b828204905092915050565b5f61398082612537565b915061398b83612537565b92508282039050818111156139a3576139a26130f7565b5b92915050565b7f467265656c616e6365722073706c6974206661696c65640000000000000000005f82015250565b5f6139dd6017836125ed565b91506139e8826139a9565b602082019050919050565b5f6020820190508181035f830152613a0a816139d1565b9050919050565b7f436c69656e742073706c6974206661696c6564000000000000000000000000005f82015250565b5f613a456013836125ed565b9150613a5082613a11565b602082019050919050565b5f6020820190508181035f830152613a7281613a39565b9050919050565b5f608082019050613a8c5f8301886126fd565b613a996020830187612718565b613aa66040830186612730565b8181036060830152613ab9818486613682565b90509695505050505050565b7f4d7573742066756e6420746865206a6f620000000000000000000000000000005f82015250565b5f613af96011836125ed565b9150613b0482613ac5565b602082019050919050565b5f6020820190508181035f830152613b2681613aed565b9050919050565b7f4465736372697074696f6e2072657175697265640000000000000000000000005f82015250565b5f613b616014836125ed565b9150613b6c82613b2d565b602082019050919050565b5f6020820190508181035f830152613b8e81613b55565b9050919050565b7f4465736372697074696f6e20746f6f206c6f6e670000000000000000000000005f82015250565b5f613bc96014836125ed565b9150613bd482613b95565b602082019050919050565b5f6020820190508181035f830152613bf681613bbd565b9050919050565b5f613c0782612537565b91507fffffffffffffffffffffffffffffffffffffffffffffffffffffffffffffffff8203613c3957613c386130f7565b5b600182019050919050565b5f604082019050613c575f8301866125d4565b8181036020830152613c6a818486613682565b9050949350505050565b7f467265656c616e63657220686173206e6f74206170706c6965640000000000005f82015250565b5f613ca8601a836125ed565b9150613cb382613c74565b602082019050919050565b5f6020820190508181035f830152613cd581613c9c565b9050919050565b7f4e6f74207468652061737369676e656420667265656c616e63657200000000005f82015250565b5f613d10601b836125ed565b9150613d1b82613cdc565b602082019050919050565b5f6020820190508181035f830152613d3d81613d04565b9050919050565b7f576f726b2055524c2072657175697265640000000000000000000000000000005f82015250565b5f613d786011836125ed565b9150613d8382613d44565b602082019050919050565b5f6020820190508181035f830152613da581613d6c565b9050919050565b5f82905092915050565b613dc08383613dac565b67ffffffffffffffff811115613dd957613dd86133c7565b5b613de38254612ee6565b613dee82828561350f565b5f601f831160018114613e1b575f8415613e09578287013590505b613e13858261358a565b865550613e7a565b601f198416613e29866133f4565b5f5b82811015613e5057848901358255600182019150602085019450602081019050613e2b565b86831015613e6d5784890135613e69601f89168261356e565b8355505b6001600288020188555050505b50505050505050565b7f4e487b71000000000000000000000000000000000000000000000000000000005f52603260045260245ffdfea2646970667358221220f68244342b72e3395ee736d0a67029cdddc9901b9096559c7ef246edff55e83d64736f6c63430008210033","linkReferences":{}},"methodIdentifiers":{"SUBMISSION_TIMEOUT()":"f247a4d0","applyForJob(uint256,string)":"6c09a5e3","approveWork(uint256)":"3d01e0fa","claimRefund(uint256)":"5b7baf64","createJob(string)":"aafa944e","disputeTimeout()":"c04c22a4","getApplications(uint256)":"bc8c937d","getJob(uint256)":"bf22c457","getJobsByStatus(uint8)":"dd8f7d1b","hasApplied(uint256,address)":"a39bf544","hireFreelancer(uint256,address)":"b0f26f18","jobCount()":"4c5d8a0f","jobs(uint256)":"180aedf3","oracle()":"7dc0d1d0","resolveDispute(uint256,uint8,uint8,bytes32,string)":"96b01085","submitWork(uint256,string)":"da8accf9","triggerDispute(uint256)":"ecf3f3cc"},"id":0}