{"abi":[{"type":"constructor","inputs":[{"name":"_oracle","type":"address","internalType":"address"},{"name":"_disputeTimeout","type":"uint256","internalType":"uint256"}],"stateMutability":"nonpayable"},{"type":"function","name":"SUBMISSION_TIMEOUT","inputs":[],"outputs":[{"name":"","type":"uint256","internalType":"uint256"}],"stateMutability":"view"},{"type":"function","name":"acceptJob","inputs":[{"name":"id","type":"uint256","internalType":"uint256"}],"outputs":[],"stateMutability":"nonpayable"},{"type":"function","name":"approveWork","inputs":[{"name":"id","type":"uint256","internalType":"uint256"}],"outputs":[],"stateMutability":"nonpayable"},{"type":"function","name":"claimRefund","inputs":[{"name":"id","type":"uint256","internalType":"uint256"}],"outputs":[],"stateMutability":"nonpayable"},{"type":"function","name":"createJob","inputs":[{"name":"description","type":"string","internalType":"string"}],"outputs":[],"stateMutability":"payable"},{"type":"function","name":"disputeTimeout","inputs":[],"outputs":[{"name":"","type":"uint256","internalType":"uint256"}],"stateMutability":"view"},{"type":"function","name":"getJob","inputs":[{"name":"id","type":"uint256","internalType":"uint256"}],"outputs":[{"name":"","type":"tuple","internalType":"struct FairWorkEscrow.Job","components":[{"name":"client","type":"address","internalType":"address"},{"name":"freelancer","type":"address","internalType":"address"},{"name":"amount","type":"uint256","internalType":"uint256"},{"name":"description","type":"string","internalType":"string"},{"name":"workUrl","type":"string","internalType":"string"},{"name":"status","type":"uint8","internalType":"enum FairWorkEscrow.JobStatus"},{"name":"outcome","type":"uint8","internalType":"enum FairWorkEscrow.DisputeOutcome"},{"name":"freelancerPercent","type":"uint8","internalType":"uint8"},{"name":"verdictHash","type":"bytes32","internalType":"bytes32"},{"name":"fundedAt","type":"uint256","internalType":"uint256"},{"name":"submittedAt","type":"uint256","internalType":"uint256"}]}],"stateMutability":"view"},{"type":"function","name":"getJobsByStatus","inputs":[{"name":"status","type":"uint8","internalType":"enum FairWorkEscrow.JobStatus"}],"outputs":[{"name":"","type":"uint256[]","internalType":"uint256[]"}],"stateMutability":"view"},{"type":"function","name":"jobCount","inputs":[],"outputs":[{"name":"","type":"uint256","internalType":"uint256"}],"stateMutability":"view"},{"type":"function","name":"jobs","inputs":[{"name":"","type":"uint256","internalType":"uint256"}],"outputs":[{"name":"client","type":"address","internalType":"address"},{"name":"freelancer","type":"address","internalType":"address"},{"name":"amount","type":"uint256","internalType":"uint256"},{"name":"description","type":"string","internalType":"string"},{"name":"workUrl","type":"string","internalType":"string"},{"name":"status","type":"uint8","internalType":"enum FairWorkEscrow.JobStatus"},{"name":"outcome","type":"uint8","internalType":"enum FairWorkEscrow.DisputeOutcome"},{"name":"freelancerPercent","type":"uint8","internalType":"uint8"},{"name":"verdictHash","type":"bytes32","internalType":"bytes32"},{"name":"fundedAt","type":"uint256","internalType":"uint256"},{"name":"submittedAt","type":"uint256","internalType":"uint256"}],"stateMutability":"view"},{"type":"function","name":"oracle","inputs":[],"outputs":[{"name":"","type":"address","internalType":"address"}],"stateMutability":"view"},{"type":"function","name":"resolveDispute","inputs":[{"name":"id","type":"uint256","internalType":"uint256"},{"name":"outcome","type":"uint8","internalType":"enum FairWorkEscrow.DisputeOutcome"},{"name":"freelancerPercent","type":"uint8","internalType":"uint8"},{"name":"verdictHash","type":"bytes32","internalType":"bytes32"},{"name":"reasoning","type":"string","internalType":"string"}],"outputs":[],"stateMutability":"nonpayable"},{"type":"function","name":"submitWork","inputs":[{"name":"id","type":"uint256","internalType":"uint256"},{"name":"workUrl","type":"string","internalType":"string"}],"outputs":[],"stateMutability":"nonpayable"},{"type":"function","name":"triggerDispute","inputs":[{"name":"id","type":"uint256","internalType":"uint256"}],"outputs":[],"stateMutability":"nonpayable"},{"type":"event","name":"DisputeResolved","inputs":[{"name":"jobId","type":"uint256","indexed":true,"internalType":"uint256"},{"name":"outcome","type":"uint8","indexed":false,"internalType":"enum FairWorkEscrow.DisputeOutcome"},{"name":"freelancerPercent","type":"uint8","indexed":false,"internalType":"uint8"},{"name":"verdictHash","type":"bytes32","indexed":false,"internalType":"bytes32"},{"name":"reasoning","type":"string","indexed":false,"internalType":"string"}],"anonymous":false},{"type":"event","name":"DisputeTriggered","inputs":[{"name":"jobId","type":"uint256","indexed":true,"internalType":"uint256"}],"anonymous":false},{"type":"event","name":"JobAccepted","inputs":[{"name":"jobId","type":"uint256","indexed":true,"internalType":"uint256"},{"name":"freelancer","type":"address","indexed":true,"internalType":"address"}],"anonymous":false},{"type":"event","name":"JobCreated","inputs":[{"name":"jobId","type":"uint256","indexed":true,"internalType":"uint256"},{"name":"client","type":"address","indexed":true,"internalType":"address"},{"name":"amount","type":"uint256","indexed":false,"internalType":"uint256"},{"name":"description","type":"string","indexed":false,"internalType":"string"}],"anonymous":false},{"type":"event","name":"RefundClaimed","inputs":[{"name":"jobId","type":"uint256","indexed":true,"internalType":"uint256"},{"name":"client","type":"address","indexed":true,"internalType":"address"},{"name":"amount","type":"uint256","indexed":false,"internalType":"uint256"}],"anonymous":false},{"type":"event","name":"WorkApproved","inputs":[{"name":"jobId","type":"uint256","indexed":true,"internalType":"uint256"},{"name":"freelancer","type":"address","indexed":true,"internalType":"address"},{"name":"amount","type":"uint256","indexed":false,"internalType":"uint256"}],"anonymous":false},{"type":"event","name":"WorkSubmitted","inputs":[{"name":"jobId","type":"uint256","indexed":true,"internalType":"uint256"},{"name":"workUrl","type":"string","indexed":false,"internalType":"string"}],"anonymous":false}],"bytecode":{"object":"0x608060405234801561000f575f5ffd5b506040516137c53803806137c58339818101604052810190610031919061010f565b815f5f6101000a81548173ffffffffffffffffffffffffffffffffffffffff021916908373ffffffffffffffffffffffffffffffffffffffff16021790555080600181905550505061014d565b5f5ffd5b5f73ffffffffffffffffffffffffffffffffffffffff82169050919050565b5f6100ab82610082565b9050919050565b6100bb816100a1565b81146100c5575f5ffd5b50565b5f815190506100d6816100b2565b92915050565b5f819050919050565b6100ee816100dc565b81146100f8575f5ffd5b50565b5f81519050610109816100e5565b92915050565b5f5f604083850312156101255761012461007e565b5b5f610132858286016100c8565b9250506020610143858286016100fb565b9150509250929050565b61366b8061015a5f395ff3fe6080604052600436106100dc575f3560e01c8063aafa944e1161007e578063da8accf911610058578063da8accf91461029c578063dd8f7d1b146102c4578063ecf3f3cc14610300578063f247a4d014610328576100dc565b8063aafa944e1461021a578063bf22c45714610236578063c04c22a414610272576100dc565b80635b7baf64116100ba5780635b7baf641461017857806363b2f3c9146101a05780637dc0d1d0146101c857806396b01085146101f2576100dc565b8063180aedf3146100e05780633d01e0fa146101265780634c5d8a0f1461014e575b5f5ffd5b3480156100eb575f5ffd5b5061010660048036038101906101019190611f6f565b610352565b60405161011d9b9a99989796959493929190612144565b60405180910390f35b348015610131575f5ffd5b5061014c60048036038101906101479190611f6f565b610518565b005b348015610159575f5ffd5b506101626107b3565b60405161016f91906121fb565b60405180910390f35b348015610183575f5ffd5b5061019e60048036038101906101999190611f6f565b6107b9565b005b3480156101ab575f5ffd5b506101c660048036038101906101c19190611f6f565b610a85565b005b3480156101d3575f5ffd5b506101dc610ce6565b6040516101e99190612214565b60405180910390f35b3480156101fd575f5ffd5b5061021860048036038101906102139190612305565b610d0a565b005b610234600480360381019061022f919061239b565b611315565b005b348015610241575f5ffd5b5061025c60048036038101906102579190611f6f565b6116bc565b604051610269919061257b565b60405180910390f35b34801561027d575f5ffd5b5061028661196b565b60405161029391906121fb565b60405180910390f35b3480156102a7575f5ffd5b506102c260048036038101906102bd919061259b565b611971565b005b3480156102cf575f5ffd5b506102ea60048036038101906102e5919061261b565b611b5b565b6040516102f791906126ee565b60405180910390f35b34801561030b575f5ffd5b5061032660048036038101906103219190611f6f565b611cbc565b005b348015610333575f5ffd5b5061033c611e89565b60405161034991906121fb565b60405180910390f35b6003602052805f5260405f205f91509050805f015f9054906101000a900473ffffffffffffffffffffffffffffffffffffffff1690806001015f9054906101000a900473ffffffffffffffffffffffffffffffffffffffff16908060020154908060030180546103c19061273b565b80601f01602080910402602001604051908101604052809291908181526020018280546103ed9061273b565b80156104385780601f1061040f57610100808354040283529160200191610438565b820191905f5260205f20905b81548152906001019060200180831161041b57829003601f168201915b50505050509080600401805461044d9061273b565b80601f01602080910402602001604051908101604052809291908181526020018280546104799061273b565b80156104c45780601f1061049b576101008083540402835291602001916104c4565b820191905f5260205f20905b8154815290600101906020018083116104a757829003601f168201915b505050505090806005015f9054906101000a900460ff16908060050160019054906101000a900460ff16908060050160029054906101000a900460ff1690806006015490806007015490806008015490508b565b5f60035f8381526020019081526020015f209050600260068111156105405761053f612058565b5b816005015f9054906101000a900460ff16600681111561056357610562612058565b5b146105a3576040517f08c379a000000000000000000000000000000000000000000000000000000000815260040161059a906127b5565b60405180910390fd5b3373ffffffffffffffffffffffffffffffffffffffff16815f015f9054906101000a900473ffffffffffffffffffffffffffffffffffffffff1673ffffffffffffffffffffffffffffffffffffffff1614610633576040517f08c379a000000000000000000000000000000000000000000000000000000000815260040161062a9061281d565b60405180910390fd5b6003816005015f6101000a81548160ff0219169083600681111561065a57610659612058565b5b02179055505f816002015490505f82600201819055505f826001015f9054906101000a900473ffffffffffffffffffffffffffffffffffffffff1673ffffffffffffffffffffffffffffffffffffffff16826040516106b890612868565b5f6040518083038185875af1925050503d805f81146106f2576040519150601f19603f3d011682016040523d82523d5f602084013e6106f7565b606091505b505090508061073b576040517f08c379a0000000000000000000000000000000000000000000000000000000008152600401610732906128c6565b60405180910390fd5b826001015f9054906101000a900473ffffffffffffffffffffffffffffffffffffffff1673ffffffffffffffffffffffffffffffffffffffff16847f64b4416fce27e7ac6fa5ad9c2d28a78d2a024b8d2b50a61f18f5e11398f7dd84846040516107a591906121fb565b60405180910390a350505050565b60025481565b5f60035f8381526020019081526020015f209050600160068111156107e1576107e0612058565b5b816005015f9054906101000a900460ff16600681111561080457610803612058565b5b14610844576040517f08c379a000000000000000000000000000000000000000000000000000000000815260040161083b9061292e565b60405180910390fd5b3373ffffffffffffffffffffffffffffffffffffffff16815f015f9054906101000a900473ffffffffffffffffffffffffffffffffffffffff1673ffffffffffffffffffffffffffffffffffffffff16146108d4576040517f08c379a00000000000000000000000000000000000000000000000000000000081526004016108cb9061281d565b60405180910390fd5b6212750081600701546108e79190612979565b421015610929576040517f08c379a0000000000000000000000000000000000000000000000000000000008152600401610920906129f6565b60405180910390fd5b6004816005015f6101000a81548160ff021916908360068111156109505761094f612058565b5b02179055505f816002015490505f82600201819055505f825f015f9054906101000a900473ffffffffffffffffffffffffffffffffffffffff1673ffffffffffffffffffffffffffffffffffffffff16826040516109ad90612868565b5f6040518083038185875af1925050503d805f81146109e7576040519150601f19603f3d011682016040523d82523d5f602084013e6109ec565b606091505b5050905080610a30576040517f08c379a0000000000000000000000000000000000000000000000000000000008152600401610a2790612a5e565b60405180910390fd5b3373ffffffffffffffffffffffffffffffffffffffff16847ff3f402280ef0a7905e124aa621b65eaeb2725c343e8b36d398ed78c29daf285c84604051610a7791906121fb565b60405180910390a350505050565b5f60035f8381526020019081526020015f2090505f6006811115610aac57610aab612058565b5b816005015f9054906101000a900460ff166006811115610acf57610ace612058565b5b14610b0f576040517f08c379a0000000000000000000000000000000000000000000000000000000008152600401610b0690612ac6565b60405180910390fd5b5f73ffffffffffffffffffffffffffffffffffffffff16816001015f9054906101000a900473ffffffffffffffffffffffffffffffffffffffff1673ffffffffffffffffffffffffffffffffffffffff1614610ba0576040517f08c379a0000000000000000000000000000000000000000000000000000000008152600401610b9790612b2e565b60405180910390fd5b3373ffffffffffffffffffffffffffffffffffffffff16815f015f9054906101000a900473ffffffffffffffffffffffffffffffffffffffff1673ffffffffffffffffffffffffffffffffffffffff1603610c30576040517f08c379a0000000000000000000000000000000000000000000000000000000008152600401610c2790612b96565b60405180910390fd5b33816001015f6101000a81548173ffffffffffffffffffffffffffffffffffffffff021916908373ffffffffffffffffffffffffffffffffffffffff1602179055506001816005015f6101000a81548160ff02191690836006811115610c9957610c98612058565b5b02179055503373ffffffffffffffffffffffffffffffffffffffff16827f4426e4a90a9570c8f678a263b11785eaaade8b79d76d18c43d4d8e00062e4f8360405160405180910390a35050565b5f5f9054906101000a900473ffffffffffffffffffffffffffffffffffffffff1681565b5f5f9054906101000a900473ffffffffffffffffffffffffffffffffffffffff1673ffffffffffffffffffffffffffffffffffffffff163373ffffffffffffffffffffffffffffffffffffffff1614610d98576040517f08c379a0000000000000000000000000000000000000000000000000000000008152600401610d8f90612bfe565b60405180910390fd5b5f60035f8881526020019081526020015f20905060056006811115610dc057610dbf612058565b5b816005015f9054906101000a900460ff166006811115610de357610de2612058565b5b14610e23576040517f08c379a0000000000000000000000000000000000000000000000000000000008152600401610e1a90612c66565b60405180910390fd5b60648560ff161115610e6a576040517f08c379a0000000000000000000000000000000000000000000000000000000008152600401610e6190612cce565b60405180910390fd5b6006816005015f6101000a81548160ff02191690836006811115610e9157610e90612058565b5b0217905550858160050160016101000a81548160ff02191690836002811115610ebd57610ebc612058565b5b0217905550848160050160026101000a81548160ff021916908360ff1602179055508381600601819055505f816002015490505f82600201819055505f6002811115610f0c57610f0b612058565b5b876002811115610f1f57610f1e612058565b5b03610ff5575f826001015f9054906101000a900473ffffffffffffffffffffffffffffffffffffffff1673ffffffffffffffffffffffffffffffffffffffff1682604051610f6c90612868565b5f6040518083038185875af1925050503d805f8114610fa6576040519150601f19603f3d011682016040523d82523d5f602084013e610fab565b606091505b5050905080610fef576040517f08c379a0000000000000000000000000000000000000000000000000000000008152600401610fe6906128c6565b60405180910390fd5b506112cb565b6001600281111561100957611008612058565b5b87600281111561101c5761101b612058565b5b036110f1575f825f015f9054906101000a900473ffffffffffffffffffffffffffffffffffffffff1673ffffffffffffffffffffffffffffffffffffffff168260405161106890612868565b5f6040518083038185875af1925050503d805f81146110a2576040519150601f19603f3d011682016040523d82523d5f602084013e6110a7565b606091505b50509050806110eb576040517f08c379a00000000000000000000000000000000000000000000000000000000081526004016110e290612d36565b60405180910390fd5b506112ca565b5f60648760ff16836111039190612d54565b61110d9190612dc2565b90505f818361111c9190612df2565b90505f8211156111f3575f846001015f9054906101000a900473ffffffffffffffffffffffffffffffffffffffff1673ffffffffffffffffffffffffffffffffffffffff168360405161116e90612868565b5f6040518083038185875af1925050503d805f81146111a8576040519150601f19603f3d011682016040523d82523d5f602084013e6111ad565b606091505b50509050806111f1576040517f08c379a00000000000000000000000000000000000000000000000000000000081526004016111e890612e6f565b60405180910390fd5b505b5f8111156112c7575f845f015f9054906101000a900473ffffffffffffffffffffffffffffffffffffffff1673ffffffffffffffffffffffffffffffffffffffff168260405161124290612868565b5f6040518083038185875af1925050503d805f811461127c576040519150601f19603f3d011682016040523d82523d5f602084013e611281565b606091505b50509050806112c5576040517f08c379a00000000000000000000000000000000000000000000000000000000081526004016112bc90612ed7565b60405180910390fd5b505b50505b5b877fe732b6dd7d15e746e970da6039a2fab68c1d3eba5af724d0eee056d655b182528888888888604051611303959493929190612f2f565b60405180910390a25050505050505050565b5f3411611357576040517f08c379a000000000000000000000000000000000000000000000000000000000815260040161134e90612fc5565b60405180910390fd5b5f828290501161139c576040517f08c379a00000000000000000000000000000000000000000000000000000000081526004016113939061302d565b60405180910390fd5b6103e88282905011156113e4576040517f08c379a00000000000000000000000000000000000000000000000000000000081526004016113db90613095565b60405180910390fd5b5f60025f8154809291906113f7906130b3565b9190505590506040518061016001604052803373ffffffffffffffffffffffffffffffffffffffff1681526020015f73ffffffffffffffffffffffffffffffffffffffff16815260200134815260200184848080601f0160208091040260200160405190810160405280939291908181526020018383808284375f81840152601f19601f82011690508083019250505050505050815260200160405180602001604052805f81525081526020015f60068111156114b7576114b6612058565b5b81526020015f60028111156114cf576114ce612058565b5b81526020015f60ff1681526020015f5f1b81526020014281526020015f81525060035f8381526020019081526020015f205f820151815f015f6101000a81548173ffffffffffffffffffffffffffffffffffffffff021916908373ffffffffffffffffffffffffffffffffffffffff1602179055506020820151816001015f6101000a81548173ffffffffffffffffffffffffffffffffffffffff021916908373ffffffffffffffffffffffffffffffffffffffff1602179055506040820151816002015560608201518160030190816115a991906132d8565b5060808201518160040190816115bf91906132d8565b5060a0820151816005015f6101000a81548160ff021916908360068111156115ea576115e9612058565b5b021790555060c08201518160050160016101000a81548160ff0219169083600281111561161a57611619612058565b5b021790555060e08201518160050160026101000a81548160ff021916908360ff1602179055506101008201518160060155610120820151816007015561014082015181600801559050503373ffffffffffffffffffffffffffffffffffffffff16817f6f3a5227c058380f6d30b3c63e04e4b049f2df6d1780f11e4ff1b3e9728a36523486866040516116af939291906133a7565b60405180910390a3505050565b6116c4611e90565b60035f8381526020019081526020015f20604051806101600160405290815f82015f9054906101000a900473ffffffffffffffffffffffffffffffffffffffff1673ffffffffffffffffffffffffffffffffffffffff1673ffffffffffffffffffffffffffffffffffffffff168152602001600182015f9054906101000a900473ffffffffffffffffffffffffffffffffffffffff1673ffffffffffffffffffffffffffffffffffffffff1673ffffffffffffffffffffffffffffffffffffffff168152602001600282015481526020016003820180546117a49061273b565b80601f01602080910402602001604051908101604052809291908181526020018280546117d09061273b565b801561181b5780601f106117f25761010080835404028352916020019161181b565b820191905f5260205f20905b8154815290600101906020018083116117fe57829003601f168201915b505050505081526020016004820180546118349061273b565b80601f01602080910402602001604051908101604052809291908181526020018280546118609061273b565b80156118ab5780601f10611882576101008083540402835291602001916118ab565b820191905f5260205f20905b81548152906001019060200180831161188e57829003601f168201915b50505050508152602001600582015f9054906101000a900460ff1660068111156118d8576118d7612058565b5b60068111156118ea576118e9612058565b5b81526020016005820160019054906101000a900460ff16600281111561191357611912612058565b5b600281111561192557611924612058565b5b81526020016005820160029054906101000a900460ff1660ff1660ff16815260200160068201548152602001600782015481526020016008820154815250509050919050565b60015481565b5f60035f8581526020019081526020015f2090506001600681111561199957611998612058565b5b816005015f9054906101000a900460ff1660068111156119bc576119bb612058565b5b146119fc576040517f08c379a00000000000000000000000000000000000000000000000000000000081526004016119f39061292e565b60405180910390fd5b3373ffffffffffffffffffffffffffffffffffffffff16816001015f9054906101000a900473ffffffffffffffffffffffffffffffffffffffff1673ffffffffffffffffffffffffffffffffffffffff1614611a8d576040517f08c379a0000000000000000000000000000000000000000000000000000000008152600401611a8490613421565b60405180910390fd5b5f8383905011611ad2576040517f08c379a0000000000000000000000000000000000000000000000000000000008152600401611ac990613489565b60405180910390fd5b8282826004019182611ae59291906134b1565b506002816005015f6101000a81548160ff02191690836006811115611b0d57611b0c612058565b5b0217905550428160080181905550837f3822c71b106c7c1dabf7f076e68c9bd98c45d0cd0d073f4dcdaf422a0fe558478484604051611b4d92919061357e565b60405180910390a250505050565b60605f5f5b600254811015611bd157836006811115611b7d57611b7c612058565b5b60035f8381526020019081526020015f206005015f9054906101000a900460ff166006811115611bb057611baf612058565b5b03611bc4578180611bc0906130b3565b9250505b8080600101915050611b60565b505f8167ffffffffffffffff811115611bed57611bec6130fa565b5b604051908082528060200260200182016040528015611c1b5781602001602082028036833780820191505090505b5090505f5f5b600254811015611cb057856006811115611c3e57611c3d612058565b5b60035f8381526020019081526020015f206005015f9054906101000a900460ff166006811115611c7157611c70612058565b5b03611ca35780838380611c83906130b3565b945081518110611c9657611c956135a0565b5b6020026020010181815250505b8080600101915050611c21565b50819350505050919050565b5f60035f8381526020019081526020015f20905060026006811115611ce457611ce3612058565b5b816005015f9054906101000a900460ff166006811115611d0757611d06612058565b5b14611d47576040517f08c379a0000000000000000000000000000000000000000000000000000000008152600401611d3e906127b5565b60405180910390fd5b3373ffffffffffffffffffffffffffffffffffffffff16816001015f9054906101000a900473ffffffffffffffffffffffffffffffffffffffff1673ffffffffffffffffffffffffffffffffffffffff1614611dd8576040517f08c379a0000000000000000000000000000000000000000000000000000000008152600401611dcf90613421565b60405180910390fd5b6001548160080154611dea9190612979565b421015611e2c576040517f08c379a0000000000000000000000000000000000000000000000000000000008152600401611e2390613617565b60405180910390fd5b6005816005015f6101000a81548160ff02191690836006811115611e5357611e52612058565b5b0217905550817f8c48f9005ba095a6930cd501ee69c0f7a68ac59d07790f414341065c08ba28b160405160405180910390a25050565b6212750081565b6040518061016001604052805f73ffffffffffffffffffffffffffffffffffffffff1681526020015f73ffffffffffffffffffffffffffffffffffffffff1681526020015f815260200160608152602001606081526020015f6006811115611efb57611efa612058565b5b81526020015f6002811115611f1357611f12612058565b5b81526020015f60ff1681526020015f81526020015f81526020015f81525090565b5f5ffd5b5f5ffd5b5f819050919050565b611f4e81611f3c565b8114611f58575f5ffd5b50565b5f81359050611f6981611f45565b92915050565b5f60208284031215611f8457611f83611f34565b5b5f611f9184828501611f5b565b91505092915050565b5f73ffffffffffffffffffffffffffffffffffffffff82169050919050565b5f611fc382611f9a565b9050919050565b611fd381611fb9565b82525050565b611fe281611f3c565b82525050565b5f81519050919050565b5f82825260208201905092915050565b8281835e5f83830152505050565b5f601f19601f8301169050919050565b5f61202a82611fe8565b6120348185611ff2565b9350612044818560208601612002565b61204d81612010565b840191505092915050565b7f4e487b71000000000000000000000000000000000000000000000000000000005f52602160045260245ffd5b6007811061209657612095612058565b5b50565b5f8190506120a682612085565b919050565b5f6120b582612099565b9050919050565b6120c5816120ab565b82525050565b600381106120dc576120db612058565b5b50565b5f8190506120ec826120cb565b919050565b5f6120fb826120df565b9050919050565b61210b816120f1565b82525050565b5f60ff82169050919050565b61212681612111565b82525050565b5f819050919050565b61213e8161212c565b82525050565b5f610160820190506121585f83018e611fca565b612165602083018d611fca565b612172604083018c611fd9565b8181036060830152612184818b612020565b90508181036080830152612198818a612020565b90506121a760a08301896120bc565b6121b460c0830188612102565b6121c160e083018761211d565b6121cf610100830186612135565b6121dd610120830185611fd9565b6121eb610140830184611fd9565b9c9b505050505050505050505050565b5f60208201905061220e5f830184611fd9565b92915050565b5f6020820190506122275f830184611fca565b92915050565b60038110612239575f5ffd5b50565b5f8135905061224a8161222d565b92915050565b61225981612111565b8114612263575f5ffd5b50565b5f8135905061227481612250565b92915050565b6122838161212c565b811461228d575f5ffd5b50565b5f8135905061229e8161227a565b92915050565b5f5ffd5b5f5ffd5b5f5ffd5b5f5f83601f8401126122c5576122c46122a4565b5b8235905067ffffffffffffffff8111156122e2576122e16122a8565b5b6020830191508360018202830111156122fe576122fd6122ac565b5b9250929050565b5f5f5f5f5f5f60a0878903121561231f5761231e611f34565b5b5f61232c89828a01611f5b565b965050602061233d89828a0161223c565b955050604061234e89828a01612266565b945050606061235f89828a01612290565b935050608087013567ffffffffffffffff8111156123805761237f611f38565b5b61238c89828a016122b0565b92509250509295509295509295565b5f5f602083850312156123b1576123b0611f34565b5b5f83013567ffffffffffffffff8111156123ce576123cd611f38565b5b6123da858286016122b0565b92509250509250929050565b6123ef81611fb9565b82525050565b6123fe81611f3c565b82525050565b5f82825260208201905092915050565b5f61241e82611fe8565b6124288185612404565b9350612438818560208601612002565b61244181612010565b840191505092915050565b612455816120ab565b82525050565b612464816120f1565b82525050565b61247381612111565b82525050565b6124828161212c565b82525050565b5f61016083015f83015161249e5f8601826123e6565b5060208301516124b160208601826123e6565b5060408301516124c460408601826123f5565b50606083015184820360608601526124dc8282612414565b915050608083015184820360808601526124f68282612414565b91505060a083015161250b60a086018261244c565b5060c083015161251e60c086018261245b565b5060e083015161253160e086018261246a565b50610100830151612546610100860182612479565b5061012083015161255b6101208601826123f5565b506101408301516125706101408601826123f5565b508091505092915050565b5f6020820190508181035f8301526125938184612488565b905092915050565b5f5f5f604084860312156125b2576125b1611f34565b5b5f6125bf86828701611f5b565b935050602084013567ffffffffffffffff8111156125e0576125df611f38565b5b6125ec868287016122b0565b92509250509250925092565b60078110612604575f5ffd5b50565b5f81359050612615816125f8565b92915050565b5f602082840312156126305761262f611f34565b5b5f61263d84828501612607565b91505092915050565b5f81519050919050565b5f82825260208201905092915050565b5f819050602082019050919050565b5f61267a83836123f5565b60208301905092915050565b5f602082019050919050565b5f61269c82612646565b6126a68185612650565b93506126b183612660565b805f5b838110156126e15781516126c8888261266f565b97506126d383612686565b9250506001810190506126b4565b5085935050505092915050565b5f6020820190508181035f8301526127068184612692565b905092915050565b7f4e487b71000000000000000000000000000000000000000000000000000000005f52602260045260245ffd5b5f600282049050600182168061275257607f821691505b6020821081036127655761276461270e565b5b50919050565b7f576f726b206e6f74207375626d697474656400000000000000000000000000005f82015250565b5f61279f601283611ff2565b91506127aa8261276b565b602082019050919050565b5f6020820190508181035f8301526127cc81612793565b9050919050565b7f4e6f742074686520636c69656e740000000000000000000000000000000000005f82015250565b5f612807600e83611ff2565b9150612812826127d3565b602082019050919050565b5f6020820190508181035f830152612834816127fb565b9050919050565b5f81905092915050565b50565b5f6128535f8361283b565b915061285e82612845565b5f82019050919050565b5f61287282612848565b9150819050919050565b7f5472616e7366657220746f20667265656c616e636572206661696c65640000005f82015250565b5f6128b0601d83611ff2565b91506128bb8261287c565b602082019050919050565b5f6020820190508181035f8301526128dd816128a4565b9050919050565b7f4a6f62206e6f7420696e2070726f6772657373000000000000000000000000005f82015250565b5f612918601383611ff2565b9150612923826128e4565b602082019050919050565b5f6020820190508181035f8301526129458161290c565b9050919050565b7f4e487b71000000000000000000000000000000000000000000000000000000005f52601160045260245ffd5b5f61298382611f3c565b915061298e83611f3c565b92508282019050808211156129a6576129a561294c565b5b92915050565b7f5375626d697373696f6e2074696d656f7574206e6f74207265616368656400005f82015250565b5f6129e0601e83611ff2565b91506129eb826129ac565b602082019050919050565b5f6020820190508181035f830152612a0d816129d4565b9050919050565b7f526566756e64206661696c6564000000000000000000000000000000000000005f82015250565b5f612a48600d83611ff2565b9150612a5382612a14565b602082019050919050565b5f6020820190508181035f830152612a7581612a3c565b9050919050565b7f4a6f62206e6f74206f70656e00000000000000000000000000000000000000005f82015250565b5f612ab0600c83611ff2565b9150612abb82612a7c565b602082019050919050565b5f6020820190508181035f830152612add81612aa4565b9050919050565b7f4a6f6220616c72656164792074616b656e0000000000000000000000000000005f82015250565b5f612b18601183611ff2565b9150612b2382612ae4565b602082019050919050565b5f6020820190508181035f830152612b4581612b0c565b9050919050565b7f43616e6e6f742061636365707420796f7572206f776e206a6f620000000000005f82015250565b5f612b80601a83611ff2565b9150612b8b82612b4c565b602082019050919050565b5f6020820190508181035f830152612bad81612b74565b9050919050565b7f4e6f74206f7261636c65000000000000000000000000000000000000000000005f82015250565b5f612be8600a83611ff2565b9150612bf382612bb4565b602082019050919050565b5f6020820190508181035f830152612c1581612bdc565b9050919050565b7f4a6f62206e6f74206469737075746564000000000000000000000000000000005f82015250565b5f612c50601083611ff2565b9150612c5b82612c1c565b602082019050919050565b5f6020820190508181035f830152612c7d81612c44565b9050919050565b7f496e76616c69642070657263656e7400000000000000000000000000000000005f82015250565b5f612cb8600f83611ff2565b9150612cc382612c84565b602082019050919050565b5f6020820190508181035f830152612ce581612cac565b9050919050565b7f5472616e7366657220746f20636c69656e74206661696c6564000000000000005f82015250565b5f612d20601983611ff2565b9150612d2b82612cec565b602082019050919050565b5f6020820190508181035f830152612d4d81612d14565b9050919050565b5f612d5e82611f3c565b9150612d6983611f3c565b9250828202612d7781611f3c565b91508282048414831517612d8e57612d8d61294c565b5b5092915050565b7f4e487b71000000000000000000000000000000000000000000000000000000005f52601260045260245ffd5b5f612dcc82611f3c565b9150612dd783611f3c565b925082612de757612de6612d95565b5b828204905092915050565b5f612dfc82611f3c565b9150612e0783611f3c565b9250828203905081811115612e1f57612e1e61294c565b5b92915050565b7f467265656c616e6365722073706c6974206661696c65640000000000000000005f82015250565b5f612e59601783611ff2565b9150612e6482612e25565b602082019050919050565b5f6020820190508181035f830152612e8681612e4d565b9050919050565b7f436c69656e742073706c6974206661696c6564000000000000000000000000005f82015250565b5f612ec1601383611ff2565b9150612ecc82612e8d565b602082019050919050565b5f6020820190508181035f830152612eee81612eb5565b9050919050565b828183375f83830152505050565b5f612f0e8385611ff2565b9350612f1b838584612ef5565b612f2483612010565b840190509392505050565b5f608082019050612f425f830188612102565b612f4f602083018761211d565b612f5c6040830186612135565b8181036060830152612f6f818486612f03565b90509695505050505050565b7f4d7573742073656e642045544820746f2066756e64206a6f62000000000000005f82015250565b5f612faf601983611ff2565b9150612fba82612f7b565b602082019050919050565b5f6020820190508181035f830152612fdc81612fa3565b9050919050565b7f4465736372697074696f6e2072657175697265640000000000000000000000005f82015250565b5f613017601483611ff2565b915061302282612fe3565b602082019050919050565b5f6020820190508181035f8301526130448161300b565b9050919050565b7f4465736372697074696f6e20746f6f206c6f6e670000000000000000000000005f82015250565b5f61307f601483611ff2565b915061308a8261304b565b602082019050919050565b5f6020820190508181035f8301526130ac81613073565b9050919050565b5f6130bd82611f3c565b91507fffffffffffffffffffffffffffffffffffffffffffffffffffffffffffffffff82036130ef576130ee61294c565b5b600182019050919050565b7f4e487b71000000000000000000000000000000000000000000000000000000005f52604160045260245ffd5b5f819050815f5260205f209050919050565b5f6020601f8301049050919050565b5f82821b905092915050565b5f600883026131837fffffffffffffffffffffffffffffffffffffffffffffffffffffffffffffffff82613148565b61318d8683613148565b95508019841693508086168417925050509392505050565b5f819050919050565b5f6131c86131c36131be84611f3c565b6131a5565b611f3c565b9050919050565b5f819050919050565b6131e1836131ae565b6131f56131ed826131cf565b848454613154565b825550505050565b5f5f905090565b61320c6131fd565b6132178184846131d8565b505050565b5f5b8281101561323d576132325f828401613204565b60018101905061321e565b505050565b601f821115613290578282111561328f5761325c81613127565b61326583613139565b61326e85613139565b602086101561327b575f90505b80830161328a8284038261321c565b505050505b5b505050565b5f82821c905092915050565b5f6132b05f1984600802613295565b1980831691505092915050565b5f6132c883836132a1565b9150826002028217905092915050565b6132e182611fe8565b67ffffffffffffffff8111156132fa576132f96130fa565b5b613304825461273b565b61330f828285613242565b5f60209050601f831160018114613340575f841561332e578287015190505b61333885826132bd565b86555061339f565b601f19841661334e86613127565b5f5b8281101561337557848901518255600182019150602085019450602081019050613350565b86831015613392578489015161338e601f8916826132a1565b8355505b6001600288020188555050505b505050505050565b5f6040820190506133ba5f830186611fd9565b81810360208301526133cd818486612f03565b9050949350505050565b7f4e6f74207468652061737369676e656420667265656c616e63657200000000005f82015250565b5f61340b601b83611ff2565b9150613416826133d7565b602082019050919050565b5f6020820190508181035f830152613438816133ff565b9050919050565b7f576f726b2055524c2072657175697265640000000000000000000000000000005f82015250565b5f613473601183611ff2565b915061347e8261343f565b602082019050919050565b5f6020820190508181035f8301526134a081613467565b9050919050565b5f82905092915050565b6134bb83836134a7565b67ffffffffffffffff8111156134d4576134d36130fa565b5b6134de825461273b565b6134e9828285613242565b5f601f831160018114613516575f8415613504578287013590505b61350e85826132bd565b865550613575565b601f19841661352486613127565b5f5b8281101561354b57848901358255600182019150602085019450602081019050613526565b868310156135685784890135613564601f8916826132a1565b8355505b6001600288020188555050505b50505050505050565b5f6020820190508181035f830152613597818486612f03565b90509392505050565b7f4e487b71000000000000000000000000000000000000000000000000000000005f52603260045260245ffd5b7f54696d656f7574206e6f742072656163686564207965740000000000000000005f82015250565b5f613601601783611ff2565b915061360c826135cd565b602082019050919050565b5f6020820190508181035f83015261362e816135f5565b905091905056fea264697066735822122050c0c92a7d75f0473a6daeff11a0a2fc3b804e1b80d8033ba626658c9da2ed1a64736f6c63430008210033","linkReferences":{}},"methodIdentifiers":{"SUBMISSION_TIMEOUT()":"f247a4d0","acceptJob(uint256)":"63b2f3c9","approveWork(uint256)":"3d01e0fa","claimRefund(uint256)":"5b7baf64","createJob(string)":"aafa944e","disputeTimeout()":"c04c22a4","getJob(uint256)":"bf22c457","getJobsByStatus(uint8)":"dd8f7d1b","jobCount()":"4c5d8a0f","jobs(uint256)":"180aedf3","oracle()":"7dc0d1d0","resolveDispute(uint256,uint8,uint8,bytes32,string)":"96b01085","submitWork(uint256,string)":"da8accf9","triggerDispute(uint256)":"ecf3f3cc"},"id":19}